{"abi":[{"type":"constructor","inputs":[{"name":"contractOwner","type":"address","internalType":"address"},{"name":"initialOperator","type":"address","internalType":"address"}],"stateMutability":"nonpayable"},{"type":"function","name":"_recoverSigner","inputs":[{"name":"ethSignedMsgHash","type":"bytes32","internalType":"bytes32"},{"name":"signature","type":"bytes","internalType":"bytes"}],"outputs":[{"name":"","type":"address","internalType":"address"},{"name":"","type":"bool","internalType":"bool"}],"stateMutability":"pure"},{"type":"function","name":"endTransfer","inputs":[{"name":"clientId","type":"bytes32","internalType":"bytes32"},{"name":"transactionId","type":"bytes32","internalType":"bytes32"},{"name":"tokenAddress","type":"address","internalType":"address"},{"name":"tokenAmount","type":"uint256","internalType":"uint256"},{"name":"receiverAddress","type":"address","internalType":"address payable"}],"outputs":[],"stateMutability":"payable"},{"type":"function","name":"getOperator","inputs":[],"outputs":[{"name":"","type":"address","internalType":"address"}],"stateMutability":"view"},{"type":"function","name":"owner","inputs":[],"outputs":[{"name":"","type":"address","internalType":"address"}],"stateMutability":"view"},{"type":"function","name":"renounceOwnership","inputs":[],"outputs":[],"stateMutability":"nonpayable"},{"type":"function","name":"setOperator","inputs":[{"name":"newOperator","type":"address","internalType":"address"}],"outputs":[],"stateMutability":"nonpayable"},{"type":"function","name":"startTransfer","inputs":[{"name":"clientId","type":"bytes32","internalType":"bytes32"},{"name":"transactionId","type":"bytes32","internalType":"bytes32"},{"name":"tokenAddress","type":"address","internalType":"address"},{"name":"tokenAmount","type":"uint256","internalType":"uint256"},{"name":"payouts","type":"tuple[]","internalType":"struct ThirdwebPaymentsGateway.PayoutInfo[]","components":[{"name":"clientId","type":"bytes32","internalType":"bytes32"},{"name":"payoutAddress","type":"address","internalType":"address payable"},{"name":"feeBPS","type":"uint256","internalType":"uint256"}]},{"name":"forwardAddress","type":"address","internalType":"address payable"},{"name":"data","type":"bytes","internalType":"bytes"},{"name":"signature","type":"bytes","internalType":"bytes"}],"outputs":[],"stateMutability":"payable"},{"type":"function","name":"transferOwnership","inputs":[{"name":"newOwner","type":"address","internalType":"address"}],"outputs":[],"stateMutability":"nonpayable"},{"type":"function","name":"withdraw","inputs":[{"name":"tokenAddress","type":"address","internalType":"address"},{"name":"tokenAmount","type":"uint256","internalType":"uint256"}],"outputs":[],"stateMutability":"nonpayable"},{"type":"function","name":"withdrawTo","inputs":[{"name":"tokenAddress","type":"address","internalType":"address"},{"name":"tokenAmount","type":"uint256","internalType":"uint256"},{"name":"receiver","type":"address","internalType":"address payable"}],"outputs":[],"stateMutability":"nonpayable"},{"type":"event","name":"FeePayout","inputs":[{"name":"clientId","type":"bytes32","indexed":true,"internalType":"bytes32"},{"name":"sender","type":"address","indexed":true,"internalType":"address"},{"name":"payoutAddress","type":"address","indexed":false,"internalType":"address"},{"name":"tokenAddress","type":"address","indexed":false,"internalType":"address"},{"name":"feeAmount","type":"uint256","indexed":false,"internalType":"uint256"},{"name":"feeBPS","type":"uint256","indexed":false,"internalType":"uint256"}],"anonymous":false},{"type":"event","name":"OperatorChanged","inputs":[{"name":"previousOperator","type":"address","indexed":true,"internalType":"address"},{"name":"newOperator","type":"address","indexed":true,"internalType":"address"}],"anonymous":false},{"type":"event","name":"OwnershipTransferred","inputs":[{"name":"previousOwner","type":"address","indexed":true,"internalType":"address"},{"name":"newOwner","type":"address","indexed":true,"internalType":"address"}],"anonymous":false},{"type":"event","name":"TransferEnd","inputs":[{"name":"clientId","type":"bytes32","indexed":true,"internalType":"bytes32"},{"name":"receiver","type":"address","indexed":true,"internalType":"address"},{"name":"transactionId","type":"bytes32","indexed":false,"internalType":"bytes32"},{"name":"tokenAddress","type":"address","indexed":false,"internalType":"address"},{"name":"tokenAmount","type":"uint256","indexed":false,"internalType":"uint256"}],"anonymous":false},{"type":"event","name":"TransferStart","inputs":[{"name":"clientId","type":"bytes32","indexed":true,"internalType":"bytes32"},{"name":"sender","type":"address","indexed":true,"internalType":"address"},{"name":"transactionId","type":"bytes32","indexed":false,"internalType":"bytes32"},{"name":"tokenAddress","type":"address","indexed":false,"internalType":"address"},{"name":"tokenAmount","type":"uint256","indexed":false,"internalType":"uint256"}],"anonymous":false},{"type":"error","name":"OwnableInvalidOwner","inputs":[{"name":"owner","type":"address","internalType":"address"}]},{"type":"error","name":"OwnableUnauthorizedAccount","inputs":[{"name":"account","type":"address","internalType":"address"}]},{"type":"error","name":"ReentrancyGuardReentrantCall","inputs":[]}],"bytecode":{"object":"0x60806040523480156200001157600080fd5b5060405162001a9838038062001a98833981016040819052620000349162000196565b816001600160a01b0381166200006557604051631e4fbdf760e01b8152600060048201526024015b60405180910390fd5b620000708162000129565b50600180556001600160a01b038116620000d85760405162461bcd60e51b815260206004820152602260248201527f4f70657261746f722063616e277420626520746865207a65726f206164647265604482015261737360f01b60648201526084016200005c565b600280546001600160a01b0319166001600160a01b0383169081179091556040516000907fd58299b712891143e76310d5e664c4203c940a67db37cf856bdaa3c5c76a802c908290a35050620001ce565b600080546001600160a01b038381166001600160a01b0319831681178455604051919092169283917f8be0079c531659141344cd1fd0a4f28419497f9722a3daafe3b4186f6b6457e09190a35050565b80516001600160a01b03811681146200019157600080fd5b919050565b60008060408385031215620001aa57600080fd5b620001b58362000179565b9150620001c56020840162000179565b90509250929050565b6118ba80620001de6000396000f3fe6080604052600436106100915760003560e01c8063c4e2c1e611610059578063c4e2c1e614610156578063e7f43c6814610176578063f2fde38b14610194578063f3fef3a3146101b4578063fa510c08146101d457600080fd5b80631b58b09c14610096578063715018a6146100da5780638da5cb5b146100f157806393e50c0714610123578063b3ab15fb14610136575b600080fd5b3480156100a257600080fd5b506100b66100b1366004611357565b6101e7565b604080516001600160a01b0390931683529015156020830152015b60405180910390f35b3480156100e657600080fd5b506100ef6102ae565b005b3480156100fd57600080fd5b506000546001600160a01b03165b6040516001600160a01b0390911681526020016100d1565b6100ef610131366004611437565b6102c2565b34801561014257600080fd5b506100ef61015136600461148d565b610534565b34801561016257600080fd5b506100ef6101713660046114b1565b610630565b34801561018257600080fd5b506002546001600160a01b031661010b565b3480156101a057600080fd5b506100ef6101af36600461148d565b6107f3565b3480156101c057600080fd5b506100ef6101cf3660046114f3565b610831565b6100ef6101e23660046115a6565b610890565b6000806000806000855160411461020757600080945094505050506102a7565b50505060208301516040840151606085015160001a601b81101561023357610230601b8261169b565b90505b604080516000808252602082018084528a905260ff841692820192909252606081018590526080810184905260019060a0016020604051602081039080840390855afa158015610287573d6000803e3d6000fd5b5050604051601f19015196505050506001600160a01b0384161515925050505b9250929050565b6102b6610cfc565b6102c06000610d29565b565b6102ca610d79565b600082116102f35760405162461bcd60e51b81526004016102ea906116b4565b60405180910390fd5b6001600160a01b03831661035c578134101561035c5760405162461bcd60e51b815260206004820152602260248201527f6d73672076616c7565206d7573742062652067746520746f6b656e20616d6f756044820152611b9d60f21b60648201526084016102ea565b604080518581526001600160a01b0385811660208301529181018490529082169086907ffce74b578f6c35e64e9b9a59f9ad2e65c0e9e887cfccf1350c44d4f4aa7b0ed19060600160405180910390a36001600160a01b0383161561047f576040516323b872dd60e01b81526001600160a01b038416906323b872dd906103eb903390859087906004016116fa565b6020604051808303816000875af115801561040a573d6000803e3d6000fd5b505050506040513d601f19601f8201168201806040525081019061042e919061171e565b61047a5760405162461bcd60e51b815260206004820152601d60248201527f4661696c656420746f20666f72776172642065726332302066756e647300000060448201526064016102ea565b610524565b6000816001600160a01b03168360405160006040518083038185875af1925050503d80600081146104cc576040519150601f19603f3d011682016040523d82523d6000602084013e6104d1565b606091505b50509050806105225760405162461bcd60e51b815260206004820152601a60248201527f4661696c656420746f2073656e6420746f20726563696576657200000000000060448201526064016102ea565b505b61052d60018055565b5050505050565b6000546001600160a01b031633148061055757506002546001600160a01b031633145b6105735760405162461bcd60e51b81526004016102ea90611740565b6001600160a01b0381166105d45760405162461bcd60e51b815260206004820152602260248201527f4f70657261746f722063616e277420626520746865207a65726f206164647265604482015261737360f01b60648201526084016102ea565b6002546040516001600160a01b038084169216907fd58299b712891143e76310d5e664c4203c940a67db37cf856bdaa3c5c76a802c90600090a3600280546001600160a01b0319166001600160a01b0392909216919091179055565b6000546001600160a01b031633148061065357506002546001600160a01b031633145b61066f5760405162461bcd60e51b81526004016102ea90611740565b610677610d79565b6001600160a01b03831615610745576040516323b872dd60e01b81526001600160a01b038416906323b872dd906106b6903090859087906004016116fa565b6020604051808303816000875af11580156106d5573d6000803e3d6000fd5b505050506040513d601f19601f820116820180604052508101906106f9919061171e565b6107405760405162461bcd60e51b81526020600482015260186024820152774661696c656420746f2077697468647261772066756e647360401b60448201526064016102ea565b6107e5565b6000816001600160a01b03168360405160006040518083038185875af1925050503d8060008114610792576040519150601f19603f3d011682016040523d82523d6000602084013e610797565b606091505b50509050806107e35760405162461bcd60e51b81526020600482015260186024820152774661696c656420746f2077697468647261772066756e647360401b60448201526064016102ea565b505b6107ee60018055565b505050565b6107fb610cfc565b6001600160a01b03811661082557604051631e4fbdf760e01b8152600060048201526024016102ea565b61082e81610d29565b50565b6000546001600160a01b031633148061085457506002546001600160a01b031633145b6108705760405162461bcd60e51b81526004016102ea90611740565b610878610d79565b610883828233610630565b61088c60018055565b5050565b610898610d79565b600088116108b85760405162461bcd60e51b81526004016102ea906116b4565b6108cb8b8b8b8b8b8b8b8b8b8b8b610da3565b6109175760405162461bcd60e51b815260206004820152601c60248201527f6661696c656420746f20766572696679207472616e73616374696f6e0000000060448201526064016102ea565b6001600160a01b03891661098557873410156109855760405162461bcd60e51b815260206004820152602760248201527f6d73672076616c7565206d75737420626520677465207468616e20746f6b656e60448201526608185b5bdd5b9d60ca1b60648201526084016102ea565b604080518b81526001600160a01b038b16602082015290810189905233908c907f9e8a0e59a8cf8afc8cf5fff01db632dc31399bc5a2c110b963019a7139f6513a9060600160405180910390a360006109e08a8a8a8a610eb9565b9050346001600160a01b038b16610ab2576109fb8234611783565b905034811115610a585760405162461bcd60e51b815260206004820152602260248201527f73656e642076616c75652063616e6e6f7420657863656564206d73672076616c604482015261756560f01b60648201526084016102ea565b89811015610ab25760405162461bcd60e51b815260206004820152602160248201527f73656e642076616c7565206d75737420636f76657220746f6b656e416d6f756e6044820152601d60fa1b60648201526084016102ea565b6001600160a01b038b1615610c3f576040516323b872dd60e01b81526001600160a01b038c16906323b872dd90610af190339030908f906004016116fa565b6020604051808303816000875af1158015610b10573d6000803e3d6000fd5b505050506040513d601f19601f82011682018060405250810190610b34919061171e565b610b805760405162461bcd60e51b815260206004820152601f60248201527f4661696c656420746f2070756c6c20757365722065726332302066756e64730060448201526064016102ea565b60405163095ea7b360e01b81526001600160a01b038881166004830152602482018c90528c169063095ea7b3906044016020604051808303816000875af1158015610bcf573d6000803e3d6000fd5b505050506040513d601f19601f82011682018060405250810190610bf3919061171e565b610c3f5760405162461bcd60e51b815260206004820152601b60248201527f4661696c656420746f20617070726f766520666f72776172646572000000000060448201526064016102ea565b6000876001600160a01b0316828888604051610c5c929190611796565b60006040518083038185875af1925050503d8060008114610c99576040519150601f19603f3d011682016040523d82523d6000602084013e610c9e565b606091505b5050905080610ce35760405162461bcd60e51b815260206004820152601160248201527011985a5b1959081d1bc8199bdc9dd85c99607a1b60448201526064016102ea565b505050610cef60018055565b5050505050505050505050565b6000546001600160a01b031633146102c05760405163118cdaa760e01b81523360048201526024016102ea565b600080546001600160a01b038381166001600160a01b0319831681178455604051919092169283917f8be0079c531659141344cd1fd0a4f28419497f9722a3daafe3b4186f6b6457e09190a35050565b600260015403610d9c57604051633ee5aeb560e01b815260040160405180910390fd5b6002600155565b600080610db0898961120f565b905060008d8d8d8d858c8c8c604051602001610dd39897969594939291906117a6565b604051602081830303815290604052805190602001209050600081604051602001610e2a91907f19457468657265756d205369676e6564204d6573736167653a0a3332000000008152601c810191909152603c0190565b604051602081830303815290604052805190602001209050600080610e858389898080601f0160208091040260200160405190810160405280939291908181526020018383808284376000920191909152506101e792505050565b91509150808015610ea357506002546001600160a01b038381169116145b955050505050509b9a5050505050505050505050565b600080805b63ffffffff81168411156111b6576000610ef98787878563ffffffff16818110610eea57610eea6117ff565b9050606002016040013561131f565b9050610f058184611815565b925033868663ffffffff8516818110610f2057610f206117ff565b905060600201600001357f894a2bb41f23aa82b70a6b145b63c6b3ae3a9f0c3a688ceb2eef8299502cf59188888663ffffffff16818110610f6357610f636117ff565b9050606002016020016020810190610f7b919061148d565b8b858b8b8963ffffffff16818110610f9557610f956117ff565b604080516001600160a01b03978816815295909616602086015284860193909352506060918202018301359082015290519081900360800190a36001600160a01b0388166110b557600086868463ffffffff16818110610ff757610ff76117ff565b905060600201602001602081019061100f919061148d565b6001600160a01b03168260405160006040518083038185875af1925050503d8060008114611059576040519150601f19603f3d011682016040523d82523d6000602084013e61105e565b606091505b50509050806110af5760405162461bcd60e51b815260206004820152601960248201527f4661696c656420746f206469737472696275746520666565730000000000000060448201526064016102ea565b506111a3565b876001600160a01b03166323b872dd3388888663ffffffff168181106110dd576110dd6117ff565b90506060020160200160208101906110f5919061148d565b846040518463ffffffff1660e01b8152600401611114939291906116fa565b6020604051808303816000875af1158015611133573d6000803e3d6000fd5b505050506040513d601f19601f82011682018060405250810190611157919061171e565b6111a35760405162461bcd60e51b815260206004820152601960248201527f546f6b656e20466565205472616e73666572204661696c65640000000000000060448201526064016102ea565b50806111ae81611828565b915050610ebe565b508481106112065760405162461bcd60e51b815260206004820152601960248201527f6665657320657863656564656420746f6b656e416d6f756e740000000000000060448201526064016102ea565b95945050505050565b60008060405160200161123290695061796f7574496e666f60b01b8152600a0190565b60405160208183030381529060405280519060200120905060005b838110156113155781858583818110611268576112686117ff565b90506060020160000135868684818110611284576112846117ff565b905060600201602001602081019061129c919061148d565b8787858181106112ae576112ae6117ff565b905060600201604001356040516020016112f39493929190938452602084019290925260601b6bffffffffffffffffffffffff19166040830152605482015260740190565b60408051601f198184030181529190528051602090910120915060010161124d565b5090505b92915050565b60008061271061132f848661184b565b6113399190611862565b949350505050565b634e487b7160e01b600052604160045260246000fd5b6000806040838503121561136a57600080fd5b82359150602083013567ffffffffffffffff8082111561138957600080fd5b818501915085601f83011261139d57600080fd5b8135818111156113af576113af611341565b604051601f8201601f19908116603f011681019083821181831017156113d7576113d7611341565b816040528281528860208487010111156113f057600080fd5b8260208601602083013760006020848301015280955050505050509250929050565b6001600160a01b038116811461082e57600080fd5b803561143281611412565b919050565b600080600080600060a0868803121561144f57600080fd5b8535945060208601359350604086013561146881611412565b925060608601359150608086013561147f81611412565b809150509295509295909350565b60006020828403121561149f57600080fd5b81356114aa81611412565b9392505050565b6000806000606084860312156114c657600080fd5b83356114d181611412565b92506020840135915060408401356114e881611412565b809150509250925092565b6000806040838503121561150657600080fd5b823561151181611412565b946020939093013593505050565b60008083601f84011261153157600080fd5b50813567ffffffffffffffff81111561154957600080fd5b6020830191508360206060830285010111156102a757600080fd5b60008083601f84011261157657600080fd5b50813567ffffffffffffffff81111561158e57600080fd5b6020830191508360208285010111156102a757600080fd5b60008060008060008060008060008060006101008c8e0312156115c857600080fd5b8b359a5060208c013599506115df60408d01611427565b985060608c0135975067ffffffffffffffff8060808e0135111561160257600080fd5b6116128e60808f01358f0161151f565b909850965061162360a08e01611427565b95508060c08e0135111561163657600080fd5b6116468e60c08f01358f01611564565b909550935060e08d013581101561165c57600080fd5b5061166d8d60e08e01358e01611564565b81935080925050509295989b509295989b9093969950565b634e487b7160e01b600052601160045260246000fd5b60ff818116838216019081111561131957611319611685565b60208082526026908201527f746f6b656e20616d6f756e74206d7573742062652067726561746572207468616040820152656e207a65726f60d01b606082015260800190565b6001600160a01b039384168152919092166020820152604081019190915260600190565b60006020828403121561173057600080fd5b815180151581146114aa57600080fd5b60208082526023908201527f43616c6c6572206973206e6f7420746865206f776e6572206f72206f706572616040820152623a37b960e91b606082015260800190565b8181038181111561131957611319611685565b8183823760009101908152919050565b88815287602082015260006bffffffffffffffffffffffff19808960601b166040840152876054840152866074840152808660601b16609484015250828460a8840137506000910160a801908152979650505050505050565b634e487b7160e01b600052603260045260246000fd5b8082018082111561131957611319611685565b600063ffffffff80831681810361184157611841611685565b6001019392505050565b808202811582820484141761131957611319611685565b60008261187f57634e487b7160e01b600052601260045260246000fd5b50049056fea26469706673582212204ec47a7b6b5fe078ace35708cc580fa3bf4c019fb37a7397d5dd36d742631e6264736f6c63430008170033","linkReferences":{}},"methodIdentifiers":{"_recoverSigner(bytes32,bytes)":"1b58b09c","endTransfer(bytes32,bytes32,address,uint256,address)":"93e50c07","getOperator()":"e7f43c68","owner()":"8da5cb5b","renounceOwnership()":"715018a6","setOperator(address)":"b3ab15fb","startTransfer(bytes32,bytes32,address,uint256,(bytes32,address,uint256)[],address,bytes,bytes)":"fa510c08","transferOwnership(address)":"f2fde38b","withdraw(address,uint256)":"f3fef3a3","withdrawTo(address,uint256,address)":"c4e2c1e6"},"id":2}